{
  "_format": "hh-sol-artifact-1",
  "contractName": "TokenAuth",
  "sourceName": "contracts/Token_Auth.sol",
  "abi": [
    {
      "anonymous": false,
      "inputs": [
        {
          "indexed": true,
          "internalType": "address",
          "name": "disabler",
          "type": "address"
        },
        {
          "indexed": true,
          "internalType": "bytes32",
          "name": "tokenHash",
          "type": "bytes32"
        },
        {
          "indexed": false,
          "internalType": "uint256",
          "name": "timestamp",
          "type": "uint256"
        }
      ],
      "name": "TokenDisabled",
      "type": "event"
    },
    {
      "anonymous": false,
      "inputs": [
        {
          "indexed": true,
          "internalType": "address",
          "name": "generator",
          "type": "address"
        },
        {
          "indexed": true,
          "internalType": "bytes32",
          "name": "tokenHash",
          "type": "bytes32"
        },
        {
          "indexed": false,
          "internalType": "uint256",
          "name": "timestamp",
          "type": "uint256"
        },
        {
          "indexed": false,
          "internalType": "string",
          "name": "dataHash",
          "type": "string"
        }
      ],
      "name": "TokenGenerated",
      "type": "event"
    },
    {
      "anonymous": false,
      "inputs": [
        {
          "indexed": true,
          "internalType": "address",
          "name": "verifier",
          "type": "address"
        },
        {
          "indexed": true,
          "internalType": "bytes32",
          "name": "tokenHash",
          "type": "bytes32"
        },
        {
          "indexed": false,
          "internalType": "bool",
          "name": "isValid",
          "type": "bool"
        },
        {
          "indexed": false,
          "internalType": "uint256",
          "name": "timestamp",
          "type": "uint256"
        }
      ],
      "name": "TokenVerified",
      "type": "event"
    },
    {
      "inputs": [
        {
          "internalType": "bytes32",
          "name": "tokenHash",
          "type": "bytes32"
        }
      ],
      "name": "disableToken",
      "outputs": [],
      "stateMutability": "nonpayable",
      "type": "function"
    },
    {
      "inputs": [
        {
          "internalType": "string",
          "name": "dataHash",
          "type": "string"
        }
      ],
      "name": "generateToken",
      "outputs": [
        {
          "internalType": "bytes32",
          "name": "",
          "type": "bytes32"
        }
      ],
      "stateMutability": "nonpayable",
      "type": "function"
    },
    {
      "inputs": [],
      "name": "getTokenCount",
      "outputs": [
        {
          "internalType": "uint256",
          "name": "",
          "type": "uint256"
        }
      ],
      "stateMutability": "view",
      "type": "function"
    },
    {
      "inputs": [
        {
          "internalType": "bytes32",
          "name": "tokenHash",
          "type": "bytes32"
        }
      ],
      "name": "getTokenDetails",
      "outputs": [
        {
          "internalType": "bool",
          "name": "isValid",
          "type": "bool"
        },
        {
          "internalType": "address",
          "name": "generator",
          "type": "address"
        },
        {
          "internalType": "uint256",
          "name": "generatedAt",
          "type": "uint256"
        },
        {
          "internalType": "string",
          "name": "dataHash",
          "type": "string"
        }
      ],
      "stateMutability": "view",
      "type": "function"
    },
    {
      "inputs": [],
      "name": "hasActiveToken",
      "outputs": [
        {
          "internalType": "bool",
          "name": "",
          "type": "bool"
        }
      ],
      "stateMutability": "view",
      "type": "function"
    },
    {
      "inputs": [],
      "name": "tokenCount",
      "outputs": [
        {
          "internalType": "uint256",
          "name": "",
          "type": "uint256"
        }
      ],
      "stateMutability": "view",
      "type": "function"
    },
    {
      "inputs": [
        {
          "internalType": "bytes32",
          "name": "",
          "type": "bytes32"
        }
      ],
      "name": "tokenRegistry",
      "outputs": [
        {
          "internalType": "address",
          "name": "generator",
          "type": "address"
        },
        {
          "internalType": "uint256",
          "name": "timestamp",
          "type": "uint256"
        },
        {
          "internalType": "bool",
          "name": "active",
          "type": "bool"
        },
        {
          "internalType": "string",
          "name": "dataHash",
          "type": "string"
        }
      ],
      "stateMutability": "view",
      "type": "function"
    },
    {
      "inputs": [
        {
          "internalType": "address",
          "name": "",
          "type": "address"
        }
      ],
      "name": "userToken",
      "outputs": [
        {
          "internalType": "bytes32",
          "name": "",
          "type": "bytes32"
        }
      ],
      "stateMutability": "view",
      "type": "function"
    },
    {
      "inputs": [
        {
          "internalType": "bytes32",
          "name": "tokenHash",
          "type": "bytes32"
        }
      ],
      "name": "verifyToken",
      "outputs": [
        {
          "internalType": "bool",
          "name": "",
          "type": "bool"
        }
      ],
      "stateMutability": "view",
      "type": "function"
    }
  ],
  "bytecode": "0x6080604052600060025534801561001557600080fd5b50611514806100256000396000f3fe608060405234801561001057600080fd5b50600436106100935760003560e01c806378a895671161006657806378a89567146101475780639f181b5e14610165578063a73143d714610183578063be8dda7a146101a1578063d0478e7b146101d157610093565b80630830538d146100985780631043fa39146100c85780631663c708146100fb5780634c8e7d811461012b575b600080fd5b6100b260048036038101906100ad9190610c0f565b610204565b6040516100bf9190610c71565b60405180910390f35b6100e260048036038101906100dd9190610cb8565b610466565b6040516100f29493929190610dd9565b60405180910390f35b61011560048036038101906101109190610e51565b61054b565b6040516101229190610c71565b60405180910390f35b61014560048036038101906101409190610cb8565b610563565b005b61014f610713565b60405161015c9190610e7e565b60405180910390f35b61016d61071d565b60405161017a9190610e7e565b60405180910390f35b61018b610723565b6040516101989190610e99565b60405180910390f35b6101bb60048036038101906101b69190610cb8565b6107a6565b6040516101c89190610e99565b60405180910390f35b6101eb60048036038101906101e69190610cb8565b61091f565b6040516101fb9493929190610eb4565b60405180910390f35b6000803342438560405160200161021e9493929190610fa5565b604051602081830303815290604052805190602001209050600073ffffffffffffffffffffffffffffffffffffffff1660008083815260200190815260200160002060000160009054906101000a900473ffffffffffffffffffffffffffffffffffffffff1673ffffffffffffffffffffffffffffffffffffffff16146102da576040517f08c379a00000000000000000000000000000000000000000000000000000000081526004016102d190611061565b60405180910390fd5b60405180608001604052803373ffffffffffffffffffffffffffffffffffffffff1681526020014281526020016001151581526020018481525060008083815260200190815260200160002060008201518160000160006101000a81548173ffffffffffffffffffffffffffffffffffffffff021916908373ffffffffffffffffffffffffffffffffffffffff1602179055506020820151816001015560408201518160020160006101000a81548160ff02191690831515021790555060608201518160030190816103ac919061128d565b5090505080600160003373ffffffffffffffffffffffffffffffffffffffff1673ffffffffffffffffffffffffffffffffffffffff16815260200190815260200160002081905550600260008154809291906104079061138e565b9190505550803373ffffffffffffffffffffffffffffffffffffffff167f4953c1612da45c4b2010052f9a40e3f22074d8b3054f5dc992f4433eb42568ff42866040516104559291906113d6565b60405180910390a380915050919050565b60006020528060005260406000206000915090508060000160009054906101000a900473ffffffffffffffffffffffffffffffffffffffff16908060010154908060020160009054906101000a900460ff16908060030180546104c8906110b0565b80601f01602080910402602001604051908101604052809291908181526020018280546104f4906110b0565b80156105415780601f1061051657610100808354040283529160200191610541565b820191906000526020600020905b81548152906001019060200180831161052457829003601f168201915b5050505050905084565b60016020528060005260406000206000915090505481565b600080600083815260200190815260200160002090503373ffffffffffffffffffffffffffffffffffffffff168160000160009054906101000a900473ffffffffffffffffffffffffffffffffffffffff1673ffffffffffffffffffffffffffffffffffffffff161461060b576040517f08c379a000000000000000000000000000000000000000000000000000000000815260040161060290611452565b60405180910390fd5b8060020160009054906101000a900460ff1661065c576040517f08c379a0000000000000000000000000000000000000000000000000000000008152600401610653906114be565b60405180910390fd5b60008160020160006101000a81548160ff0219169083151502179055506000801b600160003373ffffffffffffffffffffffffffffffffffffffff1673ffffffffffffffffffffffffffffffffffffffff16815260200190815260200160002081905550813373ffffffffffffffffffffffffffffffffffffffff167f80463b7b35342333d51492af805b2d5b13af881257d8b4c5f3a643ce82b59a63426040516107079190610e7e565b60405180910390a35050565b6000600254905090565b60025481565b600080600160003373ffffffffffffffffffffffffffffffffffffffff1673ffffffffffffffffffffffffffffffffffffffff1681526020019081526020016000205490506000801b810361077c5760009150506107a3565b60008082815260200190815260200160002060020160009054906101000a900460ff169150505b90565b6000806000808481526020019081526020016000206040518060800160405290816000820160009054906101000a900473ffffffffffffffffffffffffffffffffffffffff1673ffffffffffffffffffffffffffffffffffffffff1673ffffffffffffffffffffffffffffffffffffffff168152602001600182015481526020016002820160009054906101000a900460ff16151515158152602001600382018054610851906110b0565b80601f016020809104026020016040519081016040528092919081815260200182805461087d906110b0565b80156108ca5780601f1061089f576101008083540402835291602001916108ca565b820191906000526020600020905b8154815290600101906020018083116108ad57829003601f168201915b5050505050815250509050806040015180156109175750600073ffffffffffffffffffffffffffffffffffffffff16816000015173ffffffffffffffffffffffffffffffffffffffff1614155b915050919050565b6000806000606060008060008781526020019081526020016000206040518060800160405290816000820160009054906101000a900473ffffffffffffffffffffffffffffffffffffffff1673ffffffffffffffffffffffffffffffffffffffff1673ffffffffffffffffffffffffffffffffffffffff168152602001600182015481526020016002820160009054906101000a900460ff161515151581526020016003820180546109d0906110b0565b80601f01602080910402602001604051908101604052809291908181526020018280546109fc906110b0565b8015610a495780601f10610a1e57610100808354040283529160200191610a49565b820191906000526020600020905b815481529060010190602001808311610a2c57829003601f168201915b505050505081525050905080604001518015610a965750600073ffffffffffffffffffffffffffffffffffffffff16816000015173ffffffffffffffffffffffffffffffffffffffff1614155b8160000151826020015183606001519450945094509450509193509193565b6000604051905090565b600080fd5b600080fd5b600080fd5b600080fd5b6000601f19601f8301169050919050565b7f4e487b7100000000000000000000000000000000000000000000000000000000600052604160045260246000fd5b610b1c82610ad3565b810181811067ffffffffffffffff82111715610b3b57610b3a610ae4565b5b80604052505050565b6000610b4e610ab5565b9050610b5a8282610b13565b919050565b600067ffffffffffffffff821115610b7a57610b79610ae4565b5b610b8382610ad3565b9050602081019050919050565b82818337600083830152505050565b6000610bb2610bad84610b5f565b610b44565b905082815260208101848484011115610bce57610bcd610ace565b5b610bd9848285610b90565b509392505050565b600082601f830112610bf657610bf5610ac9565b5b8135610c06848260208601610b9f565b91505092915050565b600060208284031215610c2557610c24610abf565b5b600082013567ffffffffffffffff811115610c4357610c42610ac4565b5b610c4f84828501610be1565b91505092915050565b6000819050919050565b610c6b81610c58565b82525050565b6000602082019050610c866000830184610c62565b92915050565b610c9581610c58565b8114610ca057600080fd5b50565b600081359050610cb281610c8c565b92915050565b600060208284031215610cce57610ccd610abf565b5b6000610cdc84828501610ca3565b91505092915050565b600073ffffffffffffffffffffffffffffffffffffffff82169050919050565b6000610d1082610ce5565b9050919050565b610d2081610d05565b82525050565b6000819050919050565b610d3981610d26565b82525050565b60008115159050919050565b610d5481610d3f565b82525050565b600081519050919050565b600082825260208201905092915050565b60005b83811015610d94578082015181840152602081019050610d79565b60008484015250505050565b6000610dab82610d5a565b610db58185610d65565b9350610dc5818560208601610d76565b610dce81610ad3565b840191505092915050565b6000608082019050610dee6000830187610d17565b610dfb6020830186610d30565b610e086040830185610d4b565b8181036060830152610e1a8184610da0565b905095945050505050565b610e2e81610d05565b8114610e3957600080fd5b50565b600081359050610e4b81610e25565b92915050565b600060208284031215610e6757610e66610abf565b5b6000610e7584828501610e3c565b91505092915050565b6000602082019050610e936000830184610d30565b92915050565b6000602082019050610eae6000830184610d4b565b92915050565b6000608082019050610ec96000830187610d4b565b610ed66020830186610d17565b610ee36040830185610d30565b8181036060830152610ef58184610da0565b905095945050505050565b60008160601b9050919050565b6000610f1882610f00565b9050919050565b6000610f2a82610f0d565b9050919050565b610f42610f3d82610d05565b610f1f565b82525050565b6000819050919050565b610f63610f5e82610d26565b610f48565b82525050565b600081905092915050565b6000610f7f82610d5a565b610f898185610f69565b9350610f99818560208601610d76565b80840191505092915050565b6000610fb18287610f31565b601482019150610fc18286610f52565b602082019150610fd18285610f52565b602082019150610fe18284610f74565b915081905095945050505050565b7f546f6b656e20636f6c6c6973696f6e206465746563746564202865787472656d60008201527f656c792072617265290000000000000000000000000000000000000000000000602082015250565b600061104b602983610d65565b915061105682610fef565b604082019050919050565b6000602082019050818103600083015261107a8161103e565b9050919050565b7f4e487b7100000000000000000000000000000000000000000000000000000000600052602260045260246000fd5b600060028204905060018216806110c857607f821691505b6020821081036110db576110da611081565b5b50919050565b60008190508160005260206000209050919050565b60006020601f8301049050919050565b600082821b905092915050565b6000600883026111437fffffffffffffffffffffffffffffffffffffffffffffffffffffffffffffffff82611106565b61114d8683611106565b95508019841693508086168417925050509392505050565b6000819050919050565b600061118a61118561118084610d26565b611165565b610d26565b9050919050565b6000819050919050565b6111a48361116f565b6111b86111b082611191565b848454611113565b825550505050565b600090565b6111cd6111c0565b6111d881848461119b565b505050565b5b818110156111fc576111f16000826111c5565b6001810190506111de565b5050565b601f82111561124157611212816110e1565b61121b846110f6565b8101602085101561122a578190505b61123e611236856110f6565b8301826111dd565b50505b505050565b600082821c905092915050565b600061126460001984600802611246565b1980831691505092915050565b600061127d8383611253565b9150826002028217905092915050565b61129682610d5a565b67ffffffffffffffff8111156112af576112ae610ae4565b5b6112b982546110b0565b6112c4828285611200565b600060209050601f8311600181146112f757600084156112e5578287015190505b6112ef8582611271565b865550611357565b601f198416611305866110e1565b60005b8281101561132d57848901518255600182019150602085019450602081019050611308565b8683101561134a5784890151611346601f891682611253565b8355505b6001600288020188555050505b505050505050565b7f4e487b7100000000000000000000000000000000000000000000000000000000600052601160045260246000fd5b600061139982610d26565b91507fffffffffffffffffffffffffffffffffffffffffffffffffffffffffffffffff82036113cb576113ca61135f565b5b600182019050919050565b60006040820190506113eb6000830185610d30565b81810360208301526113fd8184610da0565b90509392505050565b7f4f6e6c7920746f6b656e206f776e65722063616e2064697361626c6500000000600082015250565b600061143c601c83610d65565b915061144782611406565b602082019050919050565b6000602082019050818103600083015261146b8161142f565b9050919050565b7f546f6b656e20616c72656164792064697361626c656400000000000000000000600082015250565b60006114a8601683610d65565b91506114b382611472565b602082019050919050565b600060208201905081810360008301526114d78161149b565b905091905056fea2646970667358221220bbc39ef19b764ec518b99dffe75a758c96c555eeb2ccf75cbdd2aa8daec7ca4764736f6c63430008140033",
  "linkReferences": {},
  "deployedLinkReferences": {}
}