{
  "_format": "hh-sol-artifact-1",
  "contractName": "TokenAuth",
  "sourceName": "contracts/Token_Auth.sol",
  "abi": [
    {
      "anonymous": false,
      "inputs": [
        {
          "indexed": true,
          "internalType": "address",
          "name": "disabler",
          "type": "address"
        },
        {
          "indexed": true,
          "internalType": "bytes32",
          "name": "tokenHash",
          "type": "bytes32"
        },
        {
          "indexed": false,
          "internalType": "uint256",
          "name": "timestamp",
          "type": "uint256"
        }
      ],
      "name": "TokenDisabled",
      "type": "event"
    },
    {
      "anonymous": false,
      "inputs": [
        {
          "indexed": true,
          "internalType": "address",
          "name": "generator",
          "type": "address"
        },
        {
          "indexed": true,
          "internalType": "bytes32",
          "name": "tokenHash",
          "type": "bytes32"
        },
        {
          "indexed": false,
          "internalType": "uint256",
          "name": "timestamp",
          "type": "uint256"
        },
        {
          "indexed": false,
          "internalType": "string",
          "name": "dataHash",
          "type": "string"
        }
      ],
      "name": "TokenGenerated",
      "type": "event"
    },
    {
      "anonymous": false,
      "inputs": [
        {
          "indexed": true,
          "internalType": "address",
          "name": "verifier",
          "type": "address"
        },
        {
          "indexed": true,
          "internalType": "bytes32",
          "name": "tokenHash",
          "type": "bytes32"
        },
        {
          "indexed": false,
          "internalType": "bool",
          "name": "isValid",
          "type": "bool"
        },
        {
          "indexed": false,
          "internalType": "uint256",
          "name": "timestamp",
          "type": "uint256"
        }
      ],
      "name": "TokenVerified",
      "type": "event"
    },
    {
      "inputs": [
        {
          "internalType": "bytes32",
          "name": "tokenHash",
          "type": "bytes32"
        }
      ],
      "name": "disableToken",
      "outputs": [],
      "stateMutability": "nonpayable",
      "type": "function"
    },
    {
      "inputs": [
        {
          "internalType": "string",
          "name": "dataHash",
          "type": "string"
        }
      ],
      "name": "generateToken",
      "outputs": [
        {
          "internalType": "bytes32",
          "name": "",
          "type": "bytes32"
        }
      ],
      "stateMutability": "nonpayable",
      "type": "function"
    },
    {
      "inputs": [],
      "name": "getTokenCount",
      "outputs": [
        {
          "internalType": "uint256",
          "name": "",
          "type": "uint256"
        }
      ],
      "stateMutability": "view",
      "type": "function"
    },
    {
      "inputs": [
        {
          "internalType": "bytes32",
          "name": "tokenHash",
          "type": "bytes32"
        }
      ],
      "name": "getTokenDetails",
      "outputs": [
        {
          "internalType": "bool",
          "name": "isValid",
          "type": "bool"
        },
        {
          "internalType": "address",
          "name": "generator",
          "type": "address"
        },
        {
          "internalType": "uint256",
          "name": "generatedAt",
          "type": "uint256"
        },
        {
          "internalType": "string",
          "name": "dataHash",
          "type": "string"
        }
      ],
      "stateMutability": "view",
      "type": "function"
    },
    {
      "inputs": [],
      "name": "hasActiveToken",
      "outputs": [
        {
          "internalType": "bool",
          "name": "",
          "type": "bool"
        }
      ],
      "stateMutability": "view",
      "type": "function"
    },
    {
      "inputs": [],
      "name": "tokenCount",
      "outputs": [
        {
          "internalType": "uint256",
          "name": "",
          "type": "uint256"
        }
      ],
      "stateMutability": "view",
      "type": "function"
    },
    {
      "inputs": [
        {
          "internalType": "bytes32",
          "name": "",
          "type": "bytes32"
        }
      ],
      "name": "tokenRegistry",
      "outputs": [
        {
          "internalType": "address",
          "name": "generator",
          "type": "address"
        },
        {
          "internalType": "uint256",
          "name": "timestamp",
          "type": "uint256"
        },
        {
          "internalType": "bool",
          "name": "active",
          "type": "bool"
        },
        {
          "internalType": "string",
          "name": "dataHash",
          "type": "string"
        }
      ],
      "stateMutability": "view",
      "type": "function"
    },
    {
      "inputs": [
        {
          "internalType": "address",
          "name": "",
          "type": "address"
        }
      ],
      "name": "userToken",
      "outputs": [
        {
          "internalType": "bytes32",
          "name": "",
          "type": "bytes32"
        }
      ],
      "stateMutability": "view",
      "type": "function"
    },
    {
      "inputs": [
        {
          "internalType": "bytes32",
          "name": "tokenHash",
          "type": "bytes32"
        }
      ],
      "name": "verifyToken",
      "outputs": [
        {
          "internalType": "bool",
          "name": "",
          "type": "bool"
        }
      ],
      "stateMutability": "view",
      "type": "function"
    }
  ],
  "bytecode": "0x6080604052600060025534801561001557600080fd5b506115ba806100256000396000f3fe608060405234801561001057600080fd5b50600436106100935760003560e01c806378a895671161006657806378a89567146101475780639f181b5e14610165578063a73143d714610183578063be8dda7a146101a1578063d0478e7b146101d157610093565b80630830538d146100985780631043fa39146100c85780631663c708146100fb5780634c8e7d811461012b575b600080fd5b6100b260048036038101906100ad9190610c92565b610204565b6040516100bf9190610cf4565b60405180910390f35b6100e260048036038101906100dd9190610d3b565b6104e9565b6040516100f29493929190610e5c565b60405180910390f35b61011560048036038101906101109190610ed4565b6105ce565b6040516101229190610cf4565b60405180910390f35b61014560048036038101906101409190610d3b565b6105e6565b005b61014f610796565b60405161015c9190610f01565b60405180910390f35b61016d6107a0565b60405161017a9190610f01565b60405180910390f35b61018b6107a6565b6040516101989190610f1c565b60405180910390f35b6101bb60048036038101906101b69190610d3b565b610829565b6040516101c89190610f1c565b60405180910390f35b6101eb60048036038101906101e69190610d3b565b6109a2565b6040516101fb9493929190610f37565b60405180910390f35b60008060001b600160003373ffffffffffffffffffffffffffffffffffffffff1673ffffffffffffffffffffffffffffffffffffffff168152602001908152602001600020541461028a576040517f08c379a000000000000000000000000000000000000000000000000000000000815260040161028190610fcf565b60405180910390fd5b60003342436040516020016102a193929190611058565b604051602081830303815290604052805190602001209050600073ffffffffffffffffffffffffffffffffffffffff1660008083815260200190815260200160002060000160009054906101000a900473ffffffffffffffffffffffffffffffffffffffff1673ffffffffffffffffffffffffffffffffffffffff161461035d576040517f08c379a000000000000000000000000000000000000000000000000000000000815260040161035490611107565b60405180910390fd5b60405180608001604052803373ffffffffffffffffffffffffffffffffffffffff1681526020014281526020016001151581526020018481525060008083815260200190815260200160002060008201518160000160006101000a81548173ffffffffffffffffffffffffffffffffffffffff021916908373ffffffffffffffffffffffffffffffffffffffff1602179055506020820151816001015560408201518160020160006101000a81548160ff021916908315150217905550606082015181600301908161042f9190611333565b5090505080600160003373ffffffffffffffffffffffffffffffffffffffff1673ffffffffffffffffffffffffffffffffffffffff168152602001908152602001600020819055506002600081548092919061048a90611434565b9190505550803373ffffffffffffffffffffffffffffffffffffffff167f4953c1612da45c4b2010052f9a40e3f22074d8b3054f5dc992f4433eb42568ff42866040516104d892919061147c565b60405180910390a380915050919050565b60006020528060005260406000206000915090508060000160009054906101000a900473ffffffffffffffffffffffffffffffffffffffff16908060010154908060020160009054906101000a900460ff169080600301805461054b90611156565b80601f016020809104026020016040519081016040528092919081815260200182805461057790611156565b80156105c45780601f10610599576101008083540402835291602001916105c4565b820191906000526020600020905b8154815290600101906020018083116105a757829003601f168201915b5050505050905084565b60016020528060005260406000206000915090505481565b600080600083815260200190815260200160002090503373ffffffffffffffffffffffffffffffffffffffff168160000160009054906101000a900473ffffffffffffffffffffffffffffffffffffffff1673ffffffffffffffffffffffffffffffffffffffff161461068e576040517f08c379a0000000000000000000000000000000000000000000000000000000008152600401610685906114f8565b60405180910390fd5b8060020160009054906101000a900460ff166106df576040517f08c379a00000000000000000000000000000000000000000000000000000000081526004016106d690611564565b60405180910390fd5b60008160020160006101000a81548160ff0219169083151502179055506000801b600160003373ffffffffffffffffffffffffffffffffffffffff1673ffffffffffffffffffffffffffffffffffffffff16815260200190815260200160002081905550813373ffffffffffffffffffffffffffffffffffffffff167f80463b7b35342333d51492af805b2d5b13af881257d8b4c5f3a643ce82b59a634260405161078a9190610f01565b60405180910390a35050565b6000600254905090565b60025481565b600080600160003373ffffffffffffffffffffffffffffffffffffffff1673ffffffffffffffffffffffffffffffffffffffff1681526020019081526020016000205490506000801b81036107ff576000915050610826565b60008082815260200190815260200160002060020160009054906101000a900460ff169150505b90565b6000806000808481526020019081526020016000206040518060800160405290816000820160009054906101000a900473ffffffffffffffffffffffffffffffffffffffff1673ffffffffffffffffffffffffffffffffffffffff1673ffffffffffffffffffffffffffffffffffffffff168152602001600182015481526020016002820160009054906101000a900460ff161515151581526020016003820180546108d490611156565b80601f016020809104026020016040519081016040528092919081815260200182805461090090611156565b801561094d5780601f106109225761010080835404028352916020019161094d565b820191906000526020600020905b81548152906001019060200180831161093057829003601f168201915b50505050508152505090508060400151801561099a5750600073ffffffffffffffffffffffffffffffffffffffff16816000015173ffffffffffffffffffffffffffffffffffffffff1614155b915050919050565b6000806000606060008060008781526020019081526020016000206040518060800160405290816000820160009054906101000a900473ffffffffffffffffffffffffffffffffffffffff1673ffffffffffffffffffffffffffffffffffffffff1673ffffffffffffffffffffffffffffffffffffffff168152602001600182015481526020016002820160009054906101000a900460ff16151515158152602001600382018054610a5390611156565b80601f0160208091040260200160405190810160405280929190818152602001828054610a7f90611156565b8015610acc5780601f10610aa157610100808354040283529160200191610acc565b820191906000526020600020905b815481529060010190602001808311610aaf57829003601f168201915b505050505081525050905080604001518015610b195750600073ffffffffffffffffffffffffffffffffffffffff16816000015173ffffffffffffffffffffffffffffffffffffffff1614155b8160000151826020015183606001519450945094509450509193509193565b6000604051905090565b600080fd5b600080fd5b600080fd5b600080fd5b6000601f19601f8301169050919050565b7f4e487b7100000000000000000000000000000000000000000000000000000000600052604160045260246000fd5b610b9f82610b56565b810181811067ffffffffffffffff82111715610bbe57610bbd610b67565b5b80604052505050565b6000610bd1610b38565b9050610bdd8282610b96565b919050565b600067ffffffffffffffff821115610bfd57610bfc610b67565b5b610c0682610b56565b9050602081019050919050565b82818337600083830152505050565b6000610c35610c3084610be2565b610bc7565b905082815260208101848484011115610c5157610c50610b51565b5b610c5c848285610c13565b509392505050565b600082601f830112610c7957610c78610b4c565b5b8135610c89848260208601610c22565b91505092915050565b600060208284031215610ca857610ca7610b42565b5b600082013567ffffffffffffffff811115610cc657610cc5610b47565b5b610cd284828501610c64565b91505092915050565b6000819050919050565b610cee81610cdb565b82525050565b6000602082019050610d096000830184610ce5565b92915050565b610d1881610cdb565b8114610d2357600080fd5b50565b600081359050610d3581610d0f565b92915050565b600060208284031215610d5157610d50610b42565b5b6000610d5f84828501610d26565b91505092915050565b600073ffffffffffffffffffffffffffffffffffffffff82169050919050565b6000610d9382610d68565b9050919050565b610da381610d88565b82525050565b6000819050919050565b610dbc81610da9565b82525050565b60008115159050919050565b610dd781610dc2565b82525050565b600081519050919050565b600082825260208201905092915050565b60005b83811015610e17578082015181840152602081019050610dfc565b60008484015250505050565b6000610e2e82610ddd565b610e388185610de8565b9350610e48818560208601610df9565b610e5181610b56565b840191505092915050565b6000608082019050610e716000830187610d9a565b610e7e6020830186610db3565b610e8b6040830185610dce565b8181036060830152610e9d8184610e23565b905095945050505050565b610eb181610d88565b8114610ebc57600080fd5b50565b600081359050610ece81610ea8565b92915050565b600060208284031215610eea57610ee9610b42565b5b6000610ef884828501610ebf565b91505092915050565b6000602082019050610f166000830184610db3565b92915050565b6000602082019050610f316000830184610dce565b92915050565b6000608082019050610f4c6000830187610dce565b610f596020830186610d9a565b610f666040830185610db3565b8181036060830152610f788184610e23565b905095945050505050565b7f5573657220616c72656164792068617320616e2061637469766520746f6b656e600082015250565b6000610fb9602083610de8565b9150610fc482610f83565b602082019050919050565b60006020820190508181036000830152610fe881610fac565b9050919050565b60008160601b9050919050565b600061100782610fef565b9050919050565b600061101982610ffc565b9050919050565b61103161102c82610d88565b61100e565b82525050565b6000819050919050565b61105261104d82610da9565b611037565b82525050565b60006110648286611020565b6014820191506110748285611041565b6020820191506110848284611041565b602082019150819050949350505050565b7f546f6b656e20636f6c6c6973696f6e206465746563746564202865787472656d60008201527f656c792072617265290000000000000000000000000000000000000000000000602082015250565b60006110f1602983610de8565b91506110fc82611095565b604082019050919050565b60006020820190508181036000830152611120816110e4565b9050919050565b7f4e487b7100000000000000000000000000000000000000000000000000000000600052602260045260246000fd5b6000600282049050600182168061116e57607f821691505b60208210810361118157611180611127565b5b50919050565b60008190508160005260206000209050919050565b60006020601f8301049050919050565b600082821b905092915050565b6000600883026111e97fffffffffffffffffffffffffffffffffffffffffffffffffffffffffffffffff826111ac565b6111f386836111ac565b95508019841693508086168417925050509392505050565b6000819050919050565b600061123061122b61122684610da9565b61120b565b610da9565b9050919050565b6000819050919050565b61124a83611215565b61125e61125682611237565b8484546111b9565b825550505050565b600090565b611273611266565b61127e818484611241565b505050565b5b818110156112a25761129760008261126b565b600181019050611284565b5050565b601f8211156112e7576112b881611187565b6112c18461119c565b810160208510156112d0578190505b6112e46112dc8561119c565b830182611283565b50505b505050565b600082821c905092915050565b600061130a600019846008026112ec565b1980831691505092915050565b600061132383836112f9565b9150826002028217905092915050565b61133c82610ddd565b67ffffffffffffffff81111561135557611354610b67565b5b61135f8254611156565b61136a8282856112a6565b600060209050601f83116001811461139d576000841561138b578287015190505b6113958582611317565b8655506113fd565b601f1984166113ab86611187565b60005b828110156113d3578489015182556001820191506020850194506020810190506113ae565b868310156113f057848901516113ec601f8916826112f9565b8355505b6001600288020188555050505b505050505050565b7f4e487b7100000000000000000000000000000000000000000000000000000000600052601160045260246000fd5b600061143f82610da9565b91507fffffffffffffffffffffffffffffffffffffffffffffffffffffffffffffffff820361147157611470611405565b5b600182019050919050565b60006040820190506114916000830185610db3565b81810360208301526114a38184610e23565b90509392505050565b7f4f6e6c7920746f6b656e206f776e65722063616e2064697361626c6500000000600082015250565b60006114e2601c83610de8565b91506114ed826114ac565b602082019050919050565b60006020820190508181036000830152611511816114d5565b9050919050565b7f546f6b656e20616c72656164792064697361626c656400000000000000000000600082015250565b600061154e601683610de8565b915061155982611518565b602082019050919050565b6000602082019050818103600083015261157d81611541565b905091905056fea26469706673582212206ae39d152fea2d455c032b07d7ffc292e63b237043212b469383a4513ddbfb7764736f6c63430008140033",
  "linkReferences": {},
  "deployedLinkReferences": {}
}